{
  "_format": "hh3-artifact-1",
  "contractName": "IdentityRegistry",
  "sourceName": "contracts/IdentityRegistry.sol",
  "abi": [
    {
      "inputs": [],
      "stateMutability": "nonpayable",
      "type": "constructor"
    },
    {
      "anonymous": false,
      "inputs": [
        {
          "indexed": true,
          "internalType": "uint256",
          "name": "id",
          "type": "uint256"
        },
        {
          "indexed": true,
          "internalType": "address",
          "name": "subject",
          "type": "address"
        },
        {
          "indexed": true,
          "internalType": "address",
          "name": "issuer",
          "type": "address"
        },
        {
          "indexed": false,
          "internalType": "string",
          "name": "credentialType",
          "type": "string"
        }
      ],
      "name": "CredentialIssued",
      "type": "event"
    },
    {
      "anonymous": false,
      "inputs": [
        {
          "indexed": true,
          "internalType": "uint256",
          "name": "id",
          "type": "uint256"
        },
        {
          "indexed": true,
          "internalType": "address",
          "name": "issuer",
          "type": "address"
        }
      ],
      "name": "CredentialRevoked",
      "type": "event"
    },
    {
      "anonymous": false,
      "inputs": [
        {
          "indexed": true,
          "internalType": "address",
          "name": "issuer",
          "type": "address"
        },
        {
          "indexed": false,
          "internalType": "bool",
          "name": "status",
          "type": "bool"
        }
      ],
      "name": "IssuerAuthorized",
      "type": "event"
    },
    {
      "anonymous": false,
      "inputs": [
        {
          "indexed": true,
          "internalType": "address",
          "name": "user",
          "type": "address"
        },
        {
          "indexed": false,
          "internalType": "string",
          "name": "name",
          "type": "string"
        },
        {
          "indexed": false,
          "internalType": "string",
          "name": "email",
          "type": "string"
        },
        {
          "indexed": false,
          "internalType": "string",
          "name": "metadataURI",
          "type": "string"
        }
      ],
      "name": "ProfileUpdated",
      "type": "event"
    },
    {
      "inputs": [],
      "name": "admin",
      "outputs": [
        {
          "internalType": "address",
          "name": "",
          "type": "address"
        }
      ],
      "stateMutability": "view",
      "type": "function"
    },
    {
      "inputs": [
        {
          "internalType": "address",
          "name": "issuer",
          "type": "address"
        },
        {
          "internalType": "bool",
          "name": "status",
          "type": "bool"
        }
      ],
      "name": "authorizeIssuer",
      "outputs": [],
      "stateMutability": "nonpayable",
      "type": "function"
    },
    {
      "inputs": [
        {
          "internalType": "address",
          "name": "",
          "type": "address"
        }
      ],
      "name": "authorizedIssuers",
      "outputs": [
        {
          "internalType": "bool",
          "name": "",
          "type": "bool"
        }
      ],
      "stateMutability": "view",
      "type": "function"
    },
    {
      "inputs": [
        {
          "internalType": "string",
          "name": "name",
          "type": "string"
        },
        {
          "internalType": "string",
          "name": "email",
          "type": "string"
        },
        {
          "internalType": "string",
          "name": "metadataURI",
          "type": "string"
        }
      ],
      "name": "createOrUpdateProfile",
      "outputs": [],
      "stateMutability": "nonpayable",
      "type": "function"
    },
    {
      "inputs": [],
      "name": "credentialCount",
      "outputs": [
        {
          "internalType": "uint256",
          "name": "",
          "type": "uint256"
        }
      ],
      "stateMutability": "view",
      "type": "function"
    },
    {
      "inputs": [
        {
          "internalType": "uint256",
          "name": "",
          "type": "uint256"
        }
      ],
      "name": "credentials",
      "outputs": [
        {
          "internalType": "uint256",
          "name": "id",
          "type": "uint256"
        },
        {
          "internalType": "address",
          "name": "subject",
          "type": "address"
        },
        {
          "internalType": "address",
          "name": "issuer",
          "type": "address"
        },
        {
          "internalType": "string",
          "name": "credentialType",
          "type": "string"
        },
        {
          "internalType": "string",
          "name": "dataHash",
          "type": "string"
        },
        {
          "internalType": "uint256",
          "name": "issueDate",
          "type": "uint256"
        },
        {
          "internalType": "uint256",
          "name": "expiryDate",
          "type": "uint256"
        },
        {
          "internalType": "bool",
          "name": "isRevoked",
          "type": "bool"
        },
        {
          "internalType": "bool",
          "name": "exists",
          "type": "bool"
        }
      ],
      "stateMutability": "view",
      "type": "function"
    },
    {
      "inputs": [
        {
          "internalType": "address",
          "name": "user",
          "type": "address"
        }
      ],
      "name": "getProfile",
      "outputs": [
        {
          "internalType": "string",
          "name": "name",
          "type": "string"
        },
        {
          "internalType": "string",
          "name": "email",
          "type": "string"
        },
        {
          "internalType": "string",
          "name": "metadataURI",
          "type": "string"
        },
        {
          "internalType": "uint256",
          "name": "createdAt",
          "type": "uint256"
        },
        {
          "internalType": "bool",
          "name": "exists",
          "type": "bool"
        }
      ],
      "stateMutability": "view",
      "type": "function"
    },
    {
      "inputs": [
        {
          "internalType": "address",
          "name": "subject",
          "type": "address"
        },
        {
          "internalType": "string",
          "name": "credentialType",
          "type": "string"
        },
        {
          "internalType": "string",
          "name": "dataHash",
          "type": "string"
        },
        {
          "internalType": "uint256",
          "name": "expiryDate",
          "type": "uint256"
        }
      ],
      "name": "issueCredential",
      "outputs": [
        {
          "internalType": "uint256",
          "name": "",
          "type": "uint256"
        }
      ],
      "stateMutability": "nonpayable",
      "type": "function"
    },
    {
      "inputs": [
        {
          "internalType": "address",
          "name": "",
          "type": "address"
        }
      ],
      "name": "profiles",
      "outputs": [
        {
          "internalType": "string",
          "name": "name",
          "type": "string"
        },
        {
          "internalType": "string",
          "name": "email",
          "type": "string"
        },
        {
          "internalType": "string",
          "name": "metadataURI",
          "type": "string"
        },
        {
          "internalType": "uint256",
          "name": "createdAt",
          "type": "uint256"
        },
        {
          "internalType": "bool",
          "name": "exists",
          "type": "bool"
        }
      ],
      "stateMutability": "view",
      "type": "function"
    },
    {
      "inputs": [
        {
          "internalType": "uint256",
          "name": "id",
          "type": "uint256"
        }
      ],
      "name": "revokeCredential",
      "outputs": [],
      "stateMutability": "nonpayable",
      "type": "function"
    },
    {
      "inputs": [
        {
          "internalType": "uint256",
          "name": "id",
          "type": "uint256"
        }
      ],
      "name": "verifyCredential",
      "outputs": [
        {
          "internalType": "bool",
          "name": "isValid",
          "type": "bool"
        },
        {
          "internalType": "address",
          "name": "subject",
          "type": "address"
        },
        {
          "internalType": "address",
          "name": "issuer",
          "type": "address"
        },
        {
          "internalType": "string",
          "name": "credentialType",
          "type": "string"
        },
        {
          "internalType": "string",
          "name": "dataHash",
          "type": "string"
        },
        {
          "internalType": "uint256",
          "name": "expiryDate",
          "type": "uint256"
        },
        {
          "internalType": "bool",
          "name": "isRevoked",
          "type": "bool"
        }
      ],
      "stateMutability": "view",
      "type": "function"
    }
  ],
  "bytecode": "0x608060405234801561000f575f80fd5b503360045f6101000a81548173ffffffffffffffffffffffffffffffffffffffff021916908373ffffffffffffffffffffffffffffffffffffffff160217905550600160025f3373ffffffffffffffffffffffffffffffffffffffff1673ffffffffffffffffffffffffffffffffffffffff1681526020019081526020015f205f6101000a81548160ff021916908315150217905550612142806100b25f395ff3fe608060405234801561000f575f80fd5b50600436106100a7575f3560e01c8063bbe156271161006f578063bbe1562714610163578063cd0e35b914610197578063e0574e3f146101b5578063f2a91b1c146101ed578063f731fa0f14610223578063f851a44014610253576100a7565b80630f53a470146100ab5780630f71ab03146100df5780631b87278d146100fb5780632c34a81714610117578063639ab2ce14610147575b5f80fd5b6100c560048036038101906100c09190611534565b610271565b6040516100d695949392919061161b565b60405180910390f35b6100f960048036038101906100f491906116ab565b6104c1565b005b61011560048036038101906101109190611713565b6105f6565b005b610131600480360381019061012c919061179f565b610822565b60405161013e9190611842565b60405180910390f35b610161600480360381019061015c919061185b565b610c24565b005b61017d60048036038101906101789190611534565b610e1f565b60405161018e95949392919061161b565b60405180910390f35b61019f610fee565b6040516101ac9190611842565b60405180910390f35b6101cf60048036038101906101ca9190611713565b610ff4565b6040516101e49998979695949392919061191a565b60405180910390f35b61020760048036038101906102029190611713565b6111a1565b60405161021a97969594939291906119b3565b60405180910390f35b61023d60048036038101906102389190611534565b611490565b60405161024a9190611a2e565b60405180910390f35b61025b6114ad565b6040516102689190611a47565b60405180910390f35b60608060605f805f805f8873ffffffffffffffffffffffffffffffffffffffff1673ffffffffffffffffffffffffffffffffffffffff1681526020019081526020015f206040518060a00160405290815f820180546102cf90611a8d565b80601f01602080910402602001604051908101604052809291908181526020018280546102fb90611a8d565b80156103465780601f1061031d57610100808354040283529160200191610346565b820191905f5260205f20905b81548152906001019060200180831161032957829003601f168201915b5050505050815260200160018201805461035f90611a8d565b80601f016020809104026020016040519081016040528092919081815260200182805461038b90611a8d565b80156103d65780601f106103ad576101008083540402835291602001916103d6565b820191905f5260205f20905b8154815290600101906020018083116103b957829003601f168201915b505050505081526020016002820180546103ef90611a8d565b80601f016020809104026020016040519081016040528092919081815260200182805461041b90611a8d565b80156104665780601f1061043d57610100808354040283529160200191610466565b820191905f5260205f20905b81548152906001019060200180831161044957829003601f168201915b5050505050815260200160038201548152602001600482015f9054906101000a900460ff1615151515815250509050805f01518160200151826040015183606001518460800151955095509550955095505091939590929450565b60045f9054906101000a900473ffffffffffffffffffffffffffffffffffffffff1673ffffffffffffffffffffffffffffffffffffffff163373ffffffffffffffffffffffffffffffffffffffff1614610550576040517f08c379a000000000000000000000000000000000000000000000000000000000815260040161054790611b2d565b60405180910390fd5b8060025f8473ffffffffffffffffffffffffffffffffffffffff1673ffffffffffffffffffffffffffffffffffffffff1681526020019081526020015f205f6101000a81548160ff0219169083151502179055508173ffffffffffffffffffffffffffffffffffffffff167f323f1985f95ab4281ac5356feae087f07598411565971dd57673e77bf9aecea8826040516105ea9190611a2e565b60405180910390a25050565b60015f8281526020019081526020015f2060070160019054906101000a900460ff16610657576040517f08c379a000000000000000000000000000000000000000000000000000000000815260040161064e90611b95565b60405180910390fd5b3373ffffffffffffffffffffffffffffffffffffffff1660015f8381526020019081526020015f206002015f9054906101000a900473ffffffffffffffffffffffffffffffffffffffff1673ffffffffffffffffffffffffffffffffffffffff161480610710575060045f9054906101000a900473ffffffffffffffffffffffffffffffffffffffff1673ffffffffffffffffffffffffffffffffffffffff163373ffffffffffffffffffffffffffffffffffffffff16145b61074f576040517f08c379a000000000000000000000000000000000000000000000000000000000815260040161074690611bfd565b60405180910390fd5b60015f8281526020019081526020015f206007015f9054906101000a900460ff16156107b0576040517f08c379a00000000000000000000000000000000000000000000000000000000081526004016107a790611c65565b60405180910390fd5b6001805f8381526020019081526020015f206007015f6101000a81548160ff0219169083151502179055503373ffffffffffffffffffffffffffffffffffffffff16817f936526f4a3155895d9f01699716f2e0c548d726a24a1437e5ce92b3dacaad35b60405160405180910390a350565b5f60025f3373ffffffffffffffffffffffffffffffffffffffff1673ffffffffffffffffffffffffffffffffffffffff1681526020019081526020015f205f9054906101000a900460ff16806108c4575060045f9054906101000a900473ffffffffffffffffffffffffffffffffffffffff1673ffffffffffffffffffffffffffffffffffffffff163373ffffffffffffffffffffffffffffffffffffffff16145b610903576040517f08c379a00000000000000000000000000000000000000000000000000000000081526004016108fa90611ccd565b60405180910390fd5b5f73ffffffffffffffffffffffffffffffffffffffff168773ffffffffffffffffffffffffffffffffffffffff1603610971576040517f08c379a000000000000000000000000000000000000000000000000000000000815260040161096890611d35565b60405180910390fd5b60035f81548092919061098390611d80565b919050555060405180610120016040528060035481526020018873ffffffffffffffffffffffffffffffffffffffff1681526020013373ffffffffffffffffffffffffffffffffffffffff16815260200187878080601f0160208091040260200160405190810160405280939291908181526020018383808284375f81840152601f19601f82011690508083019250505050505050815260200185858080601f0160208091040260200160405190810160405280939291908181526020018383808284375f81840152601f19601f8201169050808301925050505050505081526020014281526020018381526020015f151581526020016001151581525060015f60035481526020019081526020015f205f820151815f01556020820151816001015f6101000a81548173ffffffffffffffffffffffffffffffffffffffff021916908373ffffffffffffffffffffffffffffffffffffffff1602179055506040820151816002015f6101000a81548173ffffffffffffffffffffffffffffffffffffffff021916908373ffffffffffffffffffffffffffffffffffffffff1602179055506060820151816003019081610b3d9190611f91565b506080820151816004019081610b539190611f91565b5060a0820151816005015560c0820151816006015560e0820151816007015f6101000a81548160ff0219169083151502179055506101008201518160070160016101000a81548160ff0219169083151502179055509050503373ffffffffffffffffffffffffffffffffffffffff168773ffffffffffffffffffffffffffffffffffffffff166003547fd1de861db6c309080253d2536a1767c11ee81a3fb2ab87b4e83aa298c2bcbc8d8989604051610c0d92919061209a565b60405180910390a460035490509695505050505050565b6040518060a0016040528087878080601f0160208091040260200160405190810160405280939291908181526020018383808284375f81840152601f19601f82011690508083019250505050505050815260200185858080601f0160208091040260200160405190810160405280939291908181526020018383808284375f81840152601f19601f82011690508083019250505050505050815260200183838080601f0160208091040260200160405190810160405280939291908181526020018383808284375f81840152601f19601f820116905080830192505050505050508152602001428152602001600115158152505f803373ffffffffffffffffffffffffffffffffffffffff1673ffffffffffffffffffffffffffffffffffffffff1681526020019081526020015f205f820151815f019081610d669190611f91565b506020820151816001019081610d7c9190611f91565b506040820151816002019081610d929190611f91565b50606082015181600301556080820151816004015f6101000a81548160ff0219169083151502179055509050503373ffffffffffffffffffffffffffffffffffffffff167f6420daf1b58438e85465ef21dee378d307a509caab491149e3f066c5caf1266d878787878787604051610e0f969594939291906120bc565b60405180910390a2505050505050565b5f602052805f5260405f205f91509050805f018054610e3d90611a8d565b80601f0160208091040260200160405190810160405280929190818152602001828054610e6990611a8d565b8015610eb45780601f10610e8b57610100808354040283529160200191610eb4565b820191905f5260205f20905b815481529060010190602001808311610e9757829003601f168201915b505050505090806001018054610ec990611a8d565b80601f0160208091040260200160405190810160405280929190818152602001828054610ef590611a8d565b8015610f405780601f10610f1757610100808354040283529160200191610f40565b820191905f5260205f20905b815481529060010190602001808311610f2357829003601f168201915b505050505090806002018054610f5590611a8d565b80601f0160208091040260200160405190810160405280929190818152602001828054610f8190611a8d565b8015610fcc5780601f10610fa357610100808354040283529160200191610fcc565b820191905f5260205f20905b815481529060010190602001808311610faf57829003601f168201915b505050505090806003015490806004015f9054906101000a900460ff16905085565b60035481565b6001602052805f5260405f205f91509050805f015490806001015f9054906101000a900473ffffffffffffffffffffffffffffffffffffffff1690806002015f9054906101000a900473ffffffffffffffffffffffffffffffffffffffff169080600301805461106390611a8d565b80601f016020809104026020016040519081016040528092919081815260200182805461108f90611a8d565b80156110da5780601f106110b1576101008083540402835291602001916110da565b820191905f5260205f20905b8154815290600101906020018083116110bd57829003601f168201915b5050505050908060040180546110ef90611a8d565b80601f016020809104026020016040519081016040528092919081815260200182805461111b90611a8d565b80156111665780601f1061113d57610100808354040283529160200191611166565b820191905f5260205f20905b81548152906001019060200180831161114957829003601f168201915b505050505090806005015490806006015490806007015f9054906101000a900460ff16908060070160019054906101000a900460ff16905089565b5f805f6060805f805f60015f8a81526020019081526020015f20604051806101200160405290815f8201548152602001600182015f9054906101000a900473ffffffffffffffffffffffffffffffffffffffff1673ffffffffffffffffffffffffffffffffffffffff1673ffffffffffffffffffffffffffffffffffffffff168152602001600282015f9054906101000a900473ffffffffffffffffffffffffffffffffffffffff1673ffffffffffffffffffffffffffffffffffffffff1673ffffffffffffffffffffffffffffffffffffffff16815260200160038201805461128a90611a8d565b80601f01602080910402602001604051908101604052809291908181526020018280546112b690611a8d565b80156113015780601f106112d857610100808354040283529160200191611301565b820191905f5260205f20905b8154815290600101906020018083116112e457829003601f168201915b5050505050815260200160048201805461131a90611a8d565b80601f016020809104026020016040519081016040528092919081815260200182805461134690611a8d565b80156113915780601f1061136857610100808354040283529160200191611391565b820191905f5260205f20905b81548152906001019060200180831161137457829003601f168201915b505050505081526020016005820154815260200160068201548152602001600782015f9054906101000a900460ff161515151581526020016007820160019054906101000a900460ff161515151581525050905080610100015161142a575f805f805f60405180602001604052805f815250919060405180602001604052805f8152509190975097509750975097509750975050611485565b5f808260c0015111801561144157508160c0015142115b90508160e00151158015611453575080155b98508882602001518360400151846060015185608001518660c001518760e00151985098509850985098509850985050505b919395979092949650565b6002602052805f5260405f205f915054906101000a900460ff1681565b60045f9054906101000a900473ffffffffffffffffffffffffffffffffffffffff1681565b5f80fd5b5f80fd5b5f73ffffffffffffffffffffffffffffffffffffffff82169050919050565b5f611503826114da565b9050919050565b611513816114f9565b811461151d575f80fd5b50565b5f8135905061152e8161150a565b92915050565b5f60208284031215611549576115486114d2565b5b5f61155684828501611520565b91505092915050565b5f81519050919050565b5f82825260208201905092915050565b5f5b8381101561159657808201518184015260208101905061157b565b5f8484015250505050565b5f601f19601f8301169050919050565b5f6115bb8261155f565b6115c58185611569565b93506115d5818560208601611579565b6115de816115a1565b840191505092915050565b5f819050919050565b6115fb816115e9565b82525050565b5f8115159050919050565b61161581611601565b82525050565b5f60a0820190508181035f83015261163381886115b1565b9050818103602083015261164781876115b1565b9050818103604083015261165b81866115b1565b905061166a60608301856115f2565b611677608083018461160c565b9695505050505050565b61168a81611601565b8114611694575f80fd5b50565b5f813590506116a581611681565b92915050565b5f80604083850312156116c1576116c06114d2565b5b5f6116ce85828601611520565b92505060206116df85828601611697565b9150509250929050565b6116f2816115e9565b81146116fc575f80fd5b50565b5f8135905061170d816116e9565b92915050565b5f60208284031215611728576117276114d2565b5b5f611735848285016116ff565b91505092915050565b5f80fd5b5f80fd5b5f80fd5b5f8083601f84011261175f5761175e61173e565b5b8235905067ffffffffffffffff81111561177c5761177b611742565b5b60208301915083600182028301111561179857611797611746565b5b9250929050565b5f805f805f80608087890312156117b9576117b86114d2565b5b5f6117c689828a01611520565b965050602087013567ffffffffffffffff8111156117e7576117e66114d6565b5b6117f389828a0161174a565b9550955050604087013567ffffffffffffffff811115611816576118156114d6565b5b61182289828a0161174a565b9350935050606061183589828a016116ff565b9150509295509295509295565b5f6020820190506118555f8301846115f2565b92915050565b5f805f805f8060608789031215611875576118746114d2565b5b5f87013567ffffffffffffffff811115611892576118916114d6565b5b61189e89828a0161174a565b9650965050602087013567ffffffffffffffff8111156118c1576118c06114d6565b5b6118cd89828a0161174a565b9450945050604087013567ffffffffffffffff8111156118f0576118ef6114d6565b5b6118fc89828a0161174a565b92509250509295509295509295565b611914816114f9565b82525050565b5f6101208201905061192e5f83018c6115f2565b61193b602083018b61190b565b611948604083018a61190b565b818103606083015261195a81896115b1565b9050818103608083015261196e81886115b1565b905061197d60a08301876115f2565b61198a60c08301866115f2565b61199760e083018561160c565b6119a561010083018461160c565b9a9950505050505050505050565b5f60e0820190506119c65f83018a61160c565b6119d3602083018961190b565b6119e0604083018861190b565b81810360608301526119f281876115b1565b90508181036080830152611a0681866115b1565b9050611a1560a08301856115f2565b611a2260c083018461160c565b98975050505050505050565b5f602082019050611a415f83018461160c565b92915050565b5f602082019050611a5a5f83018461190b565b92915050565b7f4e487b71000000000000000000000000000000000000000000000000000000005f52602260045260245ffd5b5f6002820490506001821680611aa457607f821691505b602082108103611ab757611ab6611a60565b5b50919050565b7f4f6e6c792061646d696e2063616e20706572666f726d207468697320616374695f8201527f6f6e000000000000000000000000000000000000000000000000000000000000602082015250565b5f611b17602283611569565b9150611b2282611abd565b604082019050919050565b5f6020820190508181035f830152611b4481611b0b565b9050919050565b7f43726564656e7469616c20646f6573206e6f74206578697374000000000000005f82015250565b5f611b7f601983611569565b9150611b8a82611b4b565b602082019050919050565b5f6020820190508181035f830152611bac81611b73565b9050919050565b7f4f6e6c7920697373756572206f722061646d696e2063616e207265766f6b65005f82015250565b5f611be7601f83611569565b9150611bf282611bb3565b602082019050919050565b5f6020820190508181035f830152611c1481611bdb565b9050919050565b7f416c7265616479207265766f6b656400000000000000000000000000000000005f82015250565b5f611c4f600f83611569565b9150611c5a82611c1b565b602082019050919050565b5f6020820190508181035f830152611c7c81611c43565b9050919050565b7f4e6f7420616e20617574686f72697a65642069737375657200000000000000005f82015250565b5f611cb7601883611569565b9150611cc282611c83565b602082019050919050565b5f6020820190508181035f830152611ce481611cab565b9050919050565b7f496e76616c6964207375626a65637420616464726573730000000000000000005f82015250565b5f611d1f601783611569565b9150611d2a82611ceb565b602082019050919050565b5f6020820190508181035f830152611d4c81611d13565b9050919050565b7f4e487b71000000000000000000000000000000000000000000000000000000005f52601160045260245ffd5b5f611d8a826115e9565b91507fffffffffffffffffffffffffffffffffffffffffffffffffffffffffffffffff8203611dbc57611dbb611d53565b5b600182019050919050565b7f4e487b71000000000000000000000000000000000000000000000000000000005f52604160045260245ffd5b5f819050815f5260205f209050919050565b5f6020601f8301049050919050565b5f82821b905092915050565b5f60088302611e507fffffffffffffffffffffffffffffffffffffffffffffffffffffffffffffffff82611e15565b611e5a8683611e15565b95508019841693508086168417925050509392505050565b5f819050919050565b5f611e95611e90611e8b846115e9565b611e72565b6115e9565b9050919050565b5f819050919050565b611eae83611e7b565b611ec2611eba82611e9c565b848454611e21565b825550505050565b5f90565b611ed6611eca565b611ee1818484611ea5565b505050565b5b81811015611f0457611ef95f82611ece565b600181019050611ee7565b5050565b601f821115611f4957611f1a81611df4565b611f2384611e06565b81016020851015611f32578190505b611f46611f3e85611e06565b830182611ee6565b50505b505050565b5f82821c905092915050565b5f611f695f1984600802611f4e565b1980831691505092915050565b5f611f818383611f5a565b9150826002028217905092915050565b611f9a8261155f565b67ffffffffffffffff811115611fb357611fb2611dc7565b5b611fbd8254611a8d565b611fc8828285611f08565b5f60209050601f831160018114611ff9575f8415611fe7578287015190505b611ff18582611f76565b865550612058565b601f19841661200786611df4565b5f5b8281101561202e57848901518255600182019150602085019450602081019050612009565b8683101561204b5784890151612047601f891682611f5a565b8355505b6001600288020188555050505b505050505050565b828183375f83830152505050565b5f6120798385611569565b9350612086838584612060565b61208f836115a1565b840190509392505050565b5f6020820190508181035f8301526120b381848661206e565b90509392505050565b5f6060820190508181035f8301526120d581888a61206e565b905081810360208301526120ea81868861206e565b905081810360408301526120ff81848661206e565b905097965050505050505056fea2646970667358221220c01132a7a92ead5348629970286e695854bb6a9854f622e02f934bc8be55ce5164736f6c63430008140033",
  "linkReferences": {},
  "deployedLinkReferences": {},
  "immutableReferences": {},
  "inputSourceName": "project/contracts/IdentityRegistry.sol",
  "buildInfoId": "solc-0_8_20-8b324e0b5f112ba337a27c4cd7593d7d7f620f1a"
}